{
  "_format": "hh-sol-artifact-1",
  "contractName": "AccessControl",
  "sourceName": "contracts/utils/AccessControl.sol",
  "abi": [
    {
      "inputs": [],
      "stateMutability": "nonpayable",
      "type": "constructor"
    },
    {
      "anonymous": false,
      "inputs": [
        {
          "indexed": true,
          "internalType": "address",
          "name": "_by",
          "type": "address"
        },
        {
          "indexed": true,
          "internalType": "address",
          "name": "_to",
          "type": "address"
        },
        {
          "indexed": false,
          "internalType": "uint256",
          "name": "_requested",
          "type": "uint256"
        },
        {
          "indexed": false,
          "internalType": "uint256",
          "name": "_actual",
          "type": "uint256"
        }
      ],
      "name": "RoleUpdated",
      "type": "event"
    },
    {
      "inputs": [],
      "name": "ROLE_ACCESS_MANAGER",
      "outputs": [
        {
          "internalType": "uint256",
          "name": "",
          "type": "uint256"
        }
      ],
      "stateMutability": "view",
      "type": "function"
    },
    {
      "inputs": [
        {
          "internalType": "address",
          "name": "operator",
          "type": "address"
        },
        {
          "internalType": "uint256",
          "name": "target",
          "type": "uint256"
        },
        {
          "internalType": "uint256",
          "name": "desired",
          "type": "uint256"
        }
      ],
      "name": "evaluateBy",
      "outputs": [
        {
          "internalType": "uint256",
          "name": "",
          "type": "uint256"
        }
      ],
      "stateMutability": "view",
      "type": "function"
    },
    {
      "inputs": [],
      "name": "features",
      "outputs": [
        {
          "internalType": "uint256",
          "name": "",
          "type": "uint256"
        }
      ],
      "stateMutability": "view",
      "type": "function"
    },
    {
      "inputs": [
        {
          "internalType": "uint256",
          "name": "required",
          "type": "uint256"
        }
      ],
      "name": "isFeatureEnabled",
      "outputs": [
        {
          "internalType": "bool",
          "name": "",
          "type": "bool"
        }
      ],
      "stateMutability": "view",
      "type": "function"
    },
    {
      "inputs": [
        {
          "internalType": "address",
          "name": "operator",
          "type": "address"
        },
        {
          "internalType": "uint256",
          "name": "required",
          "type": "uint256"
        }
      ],
      "name": "isOperatorInRole",
      "outputs": [
        {
          "internalType": "bool",
          "name": "",
          "type": "bool"
        }
      ],
      "stateMutability": "view",
      "type": "function"
    },
    {
      "inputs": [
        {
          "internalType": "uint256",
          "name": "required",
          "type": "uint256"
        }
      ],
      "name": "isSenderInRole",
      "outputs": [
        {
          "internalType": "bool",
          "name": "",
          "type": "bool"
        }
      ],
      "stateMutability": "view",
      "type": "function"
    },
    {
      "inputs": [
        {
          "internalType": "uint256",
          "name": "_mask",
          "type": "uint256"
        }
      ],
      "name": "updateFeatures",
      "outputs": [],
      "stateMutability": "nonpayable",
      "type": "function"
    },
    {
      "inputs": [
        {
          "internalType": "address",
          "name": "operator",
          "type": "address"
        },
        {
          "internalType": "uint256",
          "name": "role",
          "type": "uint256"
        }
      ],
      "name": "updateRole",
      "outputs": [],
      "stateMutability": "nonpayable",
      "type": "function"
    },
    {
      "inputs": [
        {
          "internalType": "address",
          "name": "",
          "type": "address"
        }
      ],
      "name": "userRoles",
      "outputs": [
        {
          "internalType": "uint256",
          "name": "",
          "type": "uint256"
        }
      ],
      "stateMutability": "view",
      "type": "function"
    }
  ],
  "bytecode": "0x608060405234801561001057600080fd5b50336000908152602081905260409020600019905561040d806100346000396000f3fe608060405234801561001057600080fd5b50600436106100935760003560e01c8063ae682e2e11610066578063ae682e2e1461012e578063c688d69314610139578063d5bb7f671461014c578063f822d5aa1461015f578063fcc2c0781461017257600080fd5b80632b52141614610098578063725f3626146100d657806374d5e100146100f9578063ae5b102e14610119575b600080fd5b60008080526020527fad3228b676f7d3cd4284a5443f17f1962b36e491b30a40b2405849e597ba5fb5545b6040519081526020015b60405180910390f35b6100e96100e43660046103bf565b610185565b60405190151581526020016100cd565b6100c361010736600461034a565b60006020819052908152604090205481565b61012c610127366004610364565b6101c7565b005b6100c3600160ff1b81565b6100e9610147366004610364565b6102c4565b61012c61015a3660046103bf565b6102e9565b6100c361016d36600461038d565b6102f7565b6100e96101803660046103bf565b610322565b60006101c16101ba60008080526020527fad3228b676f7d3cd4284a5443f17f1962b36e491b30a40b2405849e597ba5fb55490565b8316831490565b92915050565b6101d4600160ff1b610322565b6102435760405162461bcd60e51b815260206004820152603660248201527f696e73756666696369656e742070726976696c656765732028524f4c455f4143604482015275434553535f4d414e414745522072657175697265642960501b606482015260840160405180910390fd5b6001600160a01b038216600090815260208190526040902054610268903390836102f7565b6001600160a01b03831660008181526020818152604091829020849055815185815290810193909352909133917f5a10526456f5116c0b7b80582c217d666243fd51b6a2d92c8011e601c2462e5f910160405180910390a35050565b6001600160a01b038216600090815260208190526040812054821682145b9392505050565b6102f46000826101c7565b50565b6001600160a01b03929092166000908152602081905260409020546000198084188216189216171690565b60006101c133836102c4565b80356001600160a01b038116811461034557600080fd5b919050565b60006020828403121561035b578081fd5b6102e28261032e565b60008060408385031215610376578081fd5b61037f8361032e565b946020939093013593505050565b6000806000606084860312156103a1578081fd5b6103aa8461032e565b95602085013595506040909401359392505050565b6000602082840312156103d0578081fd5b503591905056fea26469706673582212202e0c9902456e7920db1bcccc84c397e84a46aaa5c8bc61b4bb15d5041379d9e264736f6c63430008040033",
  "linkReferences": {},
  "deployedLinkReferences": {}
}