{
  "_format": "hh-sol-artifact-1",
  "contractName": "EscrowedERC20",
  "sourceName": "contracts/token/EscrowedERC20.sol",
  "abi": [
    {
      "anonymous": false,
      "inputs": [
        {
          "indexed": true,
          "internalType": "address",
          "name": "owner",
          "type": "address"
        },
        {
          "indexed": true,
          "internalType": "address",
          "name": "spender",
          "type": "address"
        },
        {
          "indexed": false,
          "internalType": "uint256",
          "name": "value",
          "type": "uint256"
        }
      ],
      "name": "Approval",
      "type": "event"
    },
    {
      "anonymous": false,
      "inputs": [
        {
          "indexed": true,
          "internalType": "address",
          "name": "_by",
          "type": "address"
        },
        {
          "indexed": true,
          "internalType": "address",
          "name": "_to",
          "type": "address"
        },
        {
          "indexed": false,
          "internalType": "uint256",
          "name": "_requested",
          "type": "uint256"
        },
        {
          "indexed": false,
          "internalType": "uint256",
          "name": "_actual",
          "type": "uint256"
        }
      ],
      "name": "RoleUpdated",
      "type": "event"
    },
    {
      "anonymous": false,
      "inputs": [
        {
          "indexed": true,
          "internalType": "address",
          "name": "from",
          "type": "address"
        },
        {
          "indexed": true,
          "internalType": "address",
          "name": "to",
          "type": "address"
        },
        {
          "indexed": false,
          "internalType": "uint256",
          "name": "value",
          "type": "uint256"
        }
      ],
      "name": "Transfer",
      "type": "event"
    },
    {
      "inputs": [],
      "name": "ROLE_ACCESS_MANAGER",
      "outputs": [
        {
          "internalType": "uint256",
          "name": "",
          "type": "uint256"
        }
      ],
      "stateMutability": "view",
      "type": "function"
    },
    {
      "inputs": [],
      "name": "ROLE_TOKEN_CREATOR",
      "outputs": [
        {
          "internalType": "uint32",
          "name": "",
          "type": "uint32"
        }
      ],
      "stateMutability": "view",
      "type": "function"
    },
    {
      "inputs": [
        {
          "internalType": "address",
          "name": "owner",
          "type": "address"
        },
        {
          "internalType": "address",
          "name": "spender",
          "type": "address"
        }
      ],
      "name": "allowance",
      "outputs": [
        {
          "internalType": "uint256",
          "name": "",
          "type": "uint256"
        }
      ],
      "stateMutability": "view",
      "type": "function"
    },
    {
      "inputs": [
        {
          "internalType": "address",
          "name": "spender",
          "type": "address"
        },
        {
          "internalType": "uint256",
          "name": "amount",
          "type": "uint256"
        }
      ],
      "name": "approve",
      "outputs": [
        {
          "internalType": "bool",
          "name": "",
          "type": "bool"
        }
      ],
      "stateMutability": "nonpayable",
      "type": "function"
    },
    {
      "inputs": [
        {
          "internalType": "address",
          "name": "account",
          "type": "address"
        }
      ],
      "name": "balanceOf",
      "outputs": [
        {
          "internalType": "uint256",
          "name": "",
          "type": "uint256"
        }
      ],
      "stateMutability": "view",
      "type": "function"
    },
    {
      "inputs": [
        {
          "internalType": "uint256",
          "name": "amount",
          "type": "uint256"
        }
      ],
      "name": "burn",
      "outputs": [],
      "stateMutability": "nonpayable",
      "type": "function"
    },
    {
      "inputs": [],
      "name": "decimals",
      "outputs": [
        {
          "internalType": "uint8",
          "name": "",
          "type": "uint8"
        }
      ],
      "stateMutability": "view",
      "type": "function"
    },
    {
      "inputs": [
        {
          "internalType": "address",
          "name": "spender",
          "type": "address"
        },
        {
          "internalType": "uint256",
          "name": "subtractedValue",
          "type": "uint256"
        }
      ],
      "name": "decreaseAllowance",
      "outputs": [
        {
          "internalType": "bool",
          "name": "",
          "type": "bool"
        }
      ],
      "stateMutability": "nonpayable",
      "type": "function"
    },
    {
      "inputs": [
        {
          "internalType": "address",
          "name": "operator",
          "type": "address"
        },
        {
          "internalType": "uint256",
          "name": "target",
          "type": "uint256"
        },
        {
          "internalType": "uint256",
          "name": "desired",
          "type": "uint256"
        }
      ],
      "name": "evaluateBy",
      "outputs": [
        {
          "internalType": "uint256",
          "name": "",
          "type": "uint256"
        }
      ],
      "stateMutability": "view",
      "type": "function"
    },
    {
      "inputs": [],
      "name": "features",
      "outputs": [
        {
          "internalType": "uint256",
          "name": "",
          "type": "uint256"
        }
      ],
      "stateMutability": "view",
      "type": "function"
    },
    {
      "inputs": [
        {
          "internalType": "address",
          "name": "spender",
          "type": "address"
        },
        {
          "internalType": "uint256",
          "name": "addedValue",
          "type": "uint256"
        }
      ],
      "name": "increaseAllowance",
      "outputs": [
        {
          "internalType": "bool",
          "name": "",
          "type": "bool"
        }
      ],
      "stateMutability": "nonpayable",
      "type": "function"
    },
    {
      "inputs": [
        {
          "internalType": "uint256",
          "name": "required",
          "type": "uint256"
        }
      ],
      "name": "isFeatureEnabled",
      "outputs": [
        {
          "internalType": "bool",
          "name": "",
          "type": "bool"
        }
      ],
      "stateMutability": "view",
      "type": "function"
    },
    {
      "inputs": [
        {
          "internalType": "address",
          "name": "operator",
          "type": "address"
        },
        {
          "internalType": "uint256",
          "name": "required",
          "type": "uint256"
        }
      ],
      "name": "isOperatorInRole",
      "outputs": [
        {
          "internalType": "bool",
          "name": "",
          "type": "bool"
        }
      ],
      "stateMutability": "view",
      "type": "function"
    },
    {
      "inputs": [
        {
          "internalType": "uint256",
          "name": "required",
          "type": "uint256"
        }
      ],
      "name": "isSenderInRole",
      "outputs": [
        {
          "internalType": "bool",
          "name": "",
          "type": "bool"
        }
      ],
      "stateMutability": "view",
      "type": "function"
    },
    {
      "inputs": [
        {
          "internalType": "address",
          "name": "recipient",
          "type": "address"
        },
        {
          "internalType": "uint256",
          "name": "amount",
          "type": "uint256"
        }
      ],
      "name": "mint",
      "outputs": [],
      "stateMutability": "nonpayable",
      "type": "function"
    },
    {
      "inputs": [],
      "name": "name",
      "outputs": [
        {
          "internalType": "string",
          "name": "",
          "type": "string"
        }
      ],
      "stateMutability": "view",
      "type": "function"
    },
    {
      "inputs": [],
      "name": "symbol",
      "outputs": [
        {
          "internalType": "string",
          "name": "",
          "type": "string"
        }
      ],
      "stateMutability": "view",
      "type": "function"
    },
    {
      "inputs": [],
      "name": "totalSupply",
      "outputs": [
        {
          "internalType": "uint256",
          "name": "",
          "type": "uint256"
        }
      ],
      "stateMutability": "view",
      "type": "function"
    },
    {
      "inputs": [
        {
          "internalType": "address",
          "name": "recipient",
          "type": "address"
        },
        {
          "internalType": "uint256",
          "name": "amount",
          "type": "uint256"
        }
      ],
      "name": "transfer",
      "outputs": [
        {
          "internalType": "bool",
          "name": "",
          "type": "bool"
        }
      ],
      "stateMutability": "nonpayable",
      "type": "function"
    },
    {
      "inputs": [
        {
          "internalType": "address",
          "name": "sender",
          "type": "address"
        },
        {
          "internalType": "address",
          "name": "recipient",
          "type": "address"
        },
        {
          "internalType": "uint256",
          "name": "amount",
          "type": "uint256"
        }
      ],
      "name": "transferFrom",
      "outputs": [
        {
          "internalType": "bool",
          "name": "",
          "type": "bool"
        }
      ],
      "stateMutability": "nonpayable",
      "type": "function"
    },
    {
      "inputs": [
        {
          "internalType": "uint256",
          "name": "_mask",
          "type": "uint256"
        }
      ],
      "name": "updateFeatures",
      "outputs": [],
      "stateMutability": "nonpayable",
      "type": "function"
    },
    {
      "inputs": [
        {
          "internalType": "address",
          "name": "operator",
          "type": "address"
        },
        {
          "internalType": "uint256",
          "name": "role",
          "type": "uint256"
        }
      ],
      "name": "updateRole",
      "outputs": [],
      "stateMutability": "nonpayable",
      "type": "function"
    },
    {
      "inputs": [
        {
          "internalType": "address",
          "name": "",
          "type": "address"
        }
      ],
      "name": "userRoles",
      "outputs": [
        {
          "internalType": "uint256",
          "name": "",
          "type": "uint256"
        }
      ],
      "stateMutability": "view",
      "type": "function"
    }
  ],
  "bytecode": "0x60806040523480156200001157600080fd5b506040805180820182526011815270457363726f77656420496c6c757669756d60781b60208083019182528351808501909452600484526339a4a62b60e11b9084015281519192916200006791600391620000a7565b5080516200007d906004906020840190620000a7565b50506005805460ff191660121790555033600090815260066020526040902060001990556200018a565b828054620000b5906200014d565b90600052602060002090601f016020900481019282620000d9576000855562000124565b82601f10620000f457805160ff191683800117855562000124565b8280016001018555821562000124579182015b828111156200012457825182559160200191906001019062000107565b506200013292915062000136565b5090565b5b8082111562000132576000815560010162000137565b600181811c908216806200016257607f821691505b602082108114156200018457634e487b7160e01b600052602260045260246000fd5b50919050565b610dbe806200019a6000396000f3fe608060405234801561001057600080fd5b506004361061014d5760003560e01c806374d5e100116100c3578063ae682e2e1161007c578063ae682e2e146102f4578063c688d693146102ff578063d5bb7f6714610312578063dd62ed3e14610325578063f822d5aa1461035e578063fcc2c0781461037157600080fd5b806374d5e100146102745780638d4e57e61461029457806395d89b41146102b3578063a457c2d7146102bb578063a9059cbb146102ce578063ae5b102e146102e157600080fd5b8063313ce56711610115578063313ce567146101e857806339509351146101fd57806340c10f191461021057806342966c681461022557806370a0823114610238578063725f36261461026157600080fd5b806306fdde0314610152578063095ea7b31461017057806318160ddd1461019357806323b872dd146101a55780632b521416146101b8575b600080fd5b61015a610384565b6040516101679190610cb5565b60405180910390f35b61018361017e366004610c42565b610416565b6040519015158152602001610167565b6002545b604051908152602001610167565b6101836101b3366004610c07565b61042c565b6000805260066020527f54cdd369e4e8a8515e52ca72ec816c2101831ad1f18bf44102ed171459c9b4f854610197565b60055460405160ff9091168152602001610167565b61018361020b366004610c42565b61047e565b61022361021e366004610c42565b6104b5565b005b610223610233366004610c9d565b61053e565b610197610246366004610bbb565b6001600160a01b031660009081526020819052604090205490565b61018361026f366004610c9d565b61054b565b610197610282366004610bbb565b60066020526000908152604090205481565b61029e6201000081565b60405163ffffffff9091168152602001610167565b61015a61058e565b6101836102c9366004610c42565b61059d565b6101836102dc366004610c42565b6105d4565b6102236102ef366004610c42565b6105e1565b610197600160ff1b81565b61018361030d366004610c42565b6106e3565b610223610320366004610c9d565b610708565b610197610333366004610bd5565b6001600160a01b03918216600090815260016020908152604080832093909416825291909152205490565b61019761036c366004610c6b565b610713565b61018361037f366004610c9d565b61073e565b60606003805461039390610d37565b80601f01602080910402602001604051908101604052809291908181526020018280546103bf90610d37565b801561040c5780601f106103e15761010080835404028352916020019161040c565b820191906000526020600020905b8154815290600101906020018083116103ef57829003601f168201915b5050505050905090565b600061042333848461074a565b50600192915050565b600061043984848461086f565b6001600160a01b03841660009081526001602090815260408083203380855292529091205461047491869161046f908690610d20565b61074a565b5060019392505050565b3360008181526001602090815260408083206001600160a01b0387168452909152812054909161042391859061046f908690610d08565b6104c16201000061073e565b6105305760405162461bcd60e51b815260206004820152603560248201527f696e73756666696369656e742070726976696c656765732028524f4c455f544f6044820152744b454e5f43524541544f522072657175697265642960581b60648201526084015b60405180910390fd5b61053a82826109da565b5050565b6105483382610ab3565b50565b60006105886105816000805260066020527f54cdd369e4e8a8515e52ca72ec816c2101831ad1f18bf44102ed171459c9b4f85490565b8316831490565b92915050565b60606004805461039390610d37565b3360008181526001602090815260408083206001600160a01b0387168452909152812054909161042391859061046f908690610d20565b600061042333848461086f565b6105ee600160ff1b61073e565b6106595760405162461bcd60e51b815260206004820152603660248201527f696e73756666696369656e742070726976696c656765732028524f4c455f4143604482015275434553535f4d414e414745522072657175697265642960501b6064820152608401610527565b6001600160a01b03821660009081526006602052604090205461067e90339083610713565b6001600160a01b0383166000818152600660205260409081902083905551909133917f5a10526456f5116c0b7b80582c217d666243fd51b6a2d92c8011e601c2462e5f916106d791869190918252602082015260400190565b60405180910390a35050565b6001600160a01b038216600090815260066020526040812054821682145b9392505050565b6105486000826105e1565b6001600160a01b03929092166000908152600660205260409020546000198084188216189216171690565b600061058833836106e3565b6001600160a01b0383166107ac5760405162461bcd60e51b8152602060048201526024808201527f45524332303a20617070726f76652066726f6d20746865207a65726f206164646044820152637265737360e01b6064820152608401610527565b6001600160a01b03821661080d5760405162461bcd60e51b815260206004820152602260248201527f45524332303a20617070726f766520746f20746865207a65726f206164647265604482015261737360f01b6064820152608401610527565b6001600160a01b0383811660008181526001602090815260408083209487168084529482529182902085905590518481527f8c5be1e5ebec7d5bd14f71427d1e84f3dd0314c0f7b2291e5b200ac8c7c3b92591015b60405180910390a3505050565b6001600160a01b0383166108d35760405162461bcd60e51b815260206004820152602560248201527f45524332303a207472616e736665722066726f6d20746865207a65726f206164604482015264647265737360d81b6064820152608401610527565b6001600160a01b0382166109355760405162461bcd60e51b815260206004820152602360248201527f45524332303a207472616e7366657220746f20746865207a65726f206164647260448201526265737360e81b6064820152608401610527565b6001600160a01b038316600090815260208190526040902054610959908290610d20565b6001600160a01b038085166000908152602081905260408082209390935590841681522054610989908290610d08565b6001600160a01b038381166000818152602081815260409182902094909455518481529092918616917fddf252ad1be2c89b69c2b068fc378daa952ba7f163c4a11628f55a4df523b3ef9101610862565b6001600160a01b038216610a305760405162461bcd60e51b815260206004820152601f60248201527f45524332303a206d696e7420746f20746865207a65726f2061646472657373006044820152606401610527565b80600254610a3e9190610d08565b6002556001600160a01b038216600090815260208190526040902054610a65908290610d08565b6001600160a01b038316600081815260208181526040808320949094559251848152919290917fddf252ad1be2c89b69c2b068fc378daa952ba7f163c4a11628f55a4df523b3ef91016106d7565b6001600160a01b038216610b135760405162461bcd60e51b815260206004820152602160248201527f45524332303a206275726e2066726f6d20746865207a65726f206164647265736044820152607360f81b6064820152608401610527565b6001600160a01b038216600090815260208190526040902054610b37908290610d20565b6001600160a01b038316600090815260208190526040902055600254610b5e908290610d20565b6002556040518181526000906001600160a01b038416907fddf252ad1be2c89b69c2b068fc378daa952ba7f163c4a11628f55a4df523b3ef906020016106d7565b80356001600160a01b0381168114610bb657600080fd5b919050565b600060208284031215610bcc578081fd5b61070182610b9f565b60008060408385031215610be7578081fd5b610bf083610b9f565b9150610bfe60208401610b9f565b90509250929050565b600080600060608486031215610c1b578081fd5b610c2484610b9f565b9250610c3260208501610b9f565b9150604084013590509250925092565b60008060408385031215610c54578182fd5b610c5d83610b9f565b946020939093013593505050565b600080600060608486031215610c7f578283fd5b610c8884610b9f565b95602085013595506040909401359392505050565b600060208284031215610cae578081fd5b5035919050565b6000602080835283518082850152825b81811015610ce157858101830151858201604001528201610cc5565b81811115610cf25783604083870101525b50601f01601f1916929092016040019392505050565b60008219821115610d1b57610d1b610d72565b500190565b600082821015610d3257610d32610d72565b500390565b600181811c90821680610d4b57607f821691505b60208210811415610d6c57634e487b7160e01b600052602260045260246000fd5b50919050565b634e487b7160e01b600052601160045260246000fdfea26469706673582212204c6d6434824330a47a9c9f761b6be83b9281c873bcada76a0357775039ee563364736f6c63430008040033",
  "linkReferences": {},
  "deployedLinkReferences": {}
}