{
  "_format": "hh-sol-artifact-1",
  "contractName": "zStakeERC20",
  "sourceName": "contracts/token/zStakeERC20.sol",
  "abi": [
    {
      "inputs": [
        {
          "internalType": "address",
          "name": "_initialHolder",
          "type": "address"
        }
      ],
      "stateMutability": "nonpayable",
      "type": "constructor"
    },
    {
      "anonymous": false,
      "inputs": [
        {
          "indexed": true,
          "internalType": "address",
          "name": "_owner",
          "type": "address"
        },
        {
          "indexed": true,
          "internalType": "address",
          "name": "_spender",
          "type": "address"
        },
        {
          "indexed": false,
          "internalType": "uint256",
          "name": "_value",
          "type": "uint256"
        }
      ],
      "name": "Approval",
      "type": "event"
    },
    {
      "anonymous": false,
      "inputs": [
        {
          "indexed": true,
          "internalType": "address",
          "name": "_owner",
          "type": "address"
        },
        {
          "indexed": true,
          "internalType": "address",
          "name": "_spender",
          "type": "address"
        },
        {
          "indexed": false,
          "internalType": "uint256",
          "name": "_oldValue",
          "type": "uint256"
        },
        {
          "indexed": false,
          "internalType": "uint256",
          "name": "_value",
          "type": "uint256"
        }
      ],
      "name": "Approved",
      "type": "event"
    },
    {
      "anonymous": false,
      "inputs": [
        {
          "indexed": true,
          "internalType": "address",
          "name": "_by",
          "type": "address"
        },
        {
          "indexed": true,
          "internalType": "address",
          "name": "_from",
          "type": "address"
        },
        {
          "indexed": false,
          "internalType": "uint256",
          "name": "_value",
          "type": "uint256"
        }
      ],
      "name": "Burnt",
      "type": "event"
    },
    {
      "anonymous": false,
      "inputs": [
        {
          "indexed": true,
          "internalType": "address",
          "name": "_of",
          "type": "address"
        },
        {
          "indexed": true,
          "internalType": "address",
          "name": "_from",
          "type": "address"
        },
        {
          "indexed": true,
          "internalType": "address",
          "name": "_to",
          "type": "address"
        }
      ],
      "name": "DelegateChanged",
      "type": "event"
    },
    {
      "anonymous": false,
      "inputs": [
        {
          "indexed": true,
          "internalType": "address",
          "name": "_by",
          "type": "address"
        },
        {
          "indexed": true,
          "internalType": "address",
          "name": "_to",
          "type": "address"
        },
        {
          "indexed": false,
          "internalType": "uint256",
          "name": "_value",
          "type": "uint256"
        }
      ],
      "name": "Minted",
      "type": "event"
    },
    {
      "anonymous": false,
      "inputs": [
        {
          "indexed": true,
          "internalType": "address",
          "name": "_by",
          "type": "address"
        },
        {
          "indexed": true,
          "internalType": "address",
          "name": "_to",
          "type": "address"
        },
        {
          "indexed": false,
          "internalType": "uint256",
          "name": "_requested",
          "type": "uint256"
        },
        {
          "indexed": false,
          "internalType": "uint256",
          "name": "_actual",
          "type": "uint256"
        }
      ],
      "name": "RoleUpdated",
      "type": "event"
    },
    {
      "anonymous": false,
      "inputs": [
        {
          "indexed": true,
          "internalType": "address",
          "name": "_from",
          "type": "address"
        },
        {
          "indexed": true,
          "internalType": "address",
          "name": "_to",
          "type": "address"
        },
        {
          "indexed": false,
          "internalType": "uint256",
          "name": "_value",
          "type": "uint256"
        }
      ],
      "name": "Transfer",
      "type": "event"
    },
    {
      "anonymous": false,
      "inputs": [
        {
          "indexed": true,
          "internalType": "address",
          "name": "_by",
          "type": "address"
        },
        {
          "indexed": true,
          "internalType": "address",
          "name": "_from",
          "type": "address"
        },
        {
          "indexed": true,
          "internalType": "address",
          "name": "_to",
          "type": "address"
        },
        {
          "indexed": false,
          "internalType": "uint256",
          "name": "_value",
          "type": "uint256"
        }
      ],
      "name": "Transferred",
      "type": "event"
    },
    {
      "anonymous": false,
      "inputs": [
        {
          "indexed": true,
          "internalType": "address",
          "name": "_of",
          "type": "address"
        },
        {
          "indexed": false,
          "internalType": "uint256",
          "name": "_fromVal",
          "type": "uint256"
        },
        {
          "indexed": false,
          "internalType": "uint256",
          "name": "_toVal",
          "type": "uint256"
        }
      ],
      "name": "VotingPowerChanged",
      "type": "event"
    },
    {
      "inputs": [],
      "name": "DELEGATION_TYPEHASH",
      "outputs": [
        {
          "internalType": "bytes32",
          "name": "",
          "type": "bytes32"
        }
      ],
      "stateMutability": "view",
      "type": "function"
    },
    {
      "inputs": [],
      "name": "DOMAIN_TYPEHASH",
      "outputs": [
        {
          "internalType": "bytes32",
          "name": "",
          "type": "bytes32"
        }
      ],
      "stateMutability": "view",
      "type": "function"
    },
    {
      "inputs": [],
      "name": "FEATURE_BURNS_ON_BEHALF",
      "outputs": [
        {
          "internalType": "uint32",
          "name": "",
          "type": "uint32"
        }
      ],
      "stateMutability": "view",
      "type": "function"
    },
    {
      "inputs": [],
      "name": "FEATURE_DELEGATIONS",
      "outputs": [
        {
          "internalType": "uint32",
          "name": "",
          "type": "uint32"
        }
      ],
      "stateMutability": "view",
      "type": "function"
    },
    {
      "inputs": [],
      "name": "FEATURE_DELEGATIONS_ON_BEHALF",
      "outputs": [
        {
          "internalType": "uint32",
          "name": "",
          "type": "uint32"
        }
      ],
      "stateMutability": "view",
      "type": "function"
    },
    {
      "inputs": [],
      "name": "FEATURE_OWN_BURNS",
      "outputs": [
        {
          "internalType": "uint32",
          "name": "",
          "type": "uint32"
        }
      ],
      "stateMutability": "view",
      "type": "function"
    },
    {
      "inputs": [],
      "name": "FEATURE_TRANSFERS",
      "outputs": [
        {
          "internalType": "uint32",
          "name": "",
          "type": "uint32"
        }
      ],
      "stateMutability": "view",
      "type": "function"
    },
    {
      "inputs": [],
      "name": "FEATURE_TRANSFERS_ON_BEHALF",
      "outputs": [
        {
          "internalType": "uint32",
          "name": "",
          "type": "uint32"
        }
      ],
      "stateMutability": "view",
      "type": "function"
    },
    {
      "inputs": [],
      "name": "FEATURE_UNSAFE_TRANSFERS",
      "outputs": [
        {
          "internalType": "uint32",
          "name": "",
          "type": "uint32"
        }
      ],
      "stateMutability": "view",
      "type": "function"
    },
    {
      "inputs": [],
      "name": "ROLE_ACCESS_MANAGER",
      "outputs": [
        {
          "internalType": "uint256",
          "name": "",
          "type": "uint256"
        }
      ],
      "stateMutability": "view",
      "type": "function"
    },
    {
      "inputs": [],
      "name": "ROLE_ERC20_RECEIVER",
      "outputs": [
        {
          "internalType": "uint32",
          "name": "",
          "type": "uint32"
        }
      ],
      "stateMutability": "view",
      "type": "function"
    },
    {
      "inputs": [],
      "name": "ROLE_ERC20_SENDER",
      "outputs": [
        {
          "internalType": "uint32",
          "name": "",
          "type": "uint32"
        }
      ],
      "stateMutability": "view",
      "type": "function"
    },
    {
      "inputs": [],
      "name": "ROLE_TOKEN_CREATOR",
      "outputs": [
        {
          "internalType": "uint32",
          "name": "",
          "type": "uint32"
        }
      ],
      "stateMutability": "view",
      "type": "function"
    },
    {
      "inputs": [],
      "name": "ROLE_TOKEN_DESTROYER",
      "outputs": [
        {
          "internalType": "uint32",
          "name": "",
          "type": "uint32"
        }
      ],
      "stateMutability": "view",
      "type": "function"
    },
    {
      "inputs": [
        {
          "internalType": "address",
          "name": "_owner",
          "type": "address"
        },
        {
          "internalType": "address",
          "name": "_spender",
          "type": "address"
        }
      ],
      "name": "allowance",
      "outputs": [
        {
          "internalType": "uint256",
          "name": "remaining",
          "type": "uint256"
        }
      ],
      "stateMutability": "view",
      "type": "function"
    },
    {
      "inputs": [
        {
          "internalType": "address",
          "name": "_spender",
          "type": "address"
        },
        {
          "internalType": "uint256",
          "name": "_value",
          "type": "uint256"
        }
      ],
      "name": "approve",
      "outputs": [
        {
          "internalType": "bool",
          "name": "success",
          "type": "bool"
        }
      ],
      "stateMutability": "nonpayable",
      "type": "function"
    },
    {
      "inputs": [
        {
          "internalType": "address",
          "name": "_owner",
          "type": "address"
        }
      ],
      "name": "balanceOf",
      "outputs": [
        {
          "internalType": "uint256",
          "name": "balance",
          "type": "uint256"
        }
      ],
      "stateMutability": "view",
      "type": "function"
    },
    {
      "inputs": [
        {
          "internalType": "address",
          "name": "_from",
          "type": "address"
        },
        {
          "internalType": "uint256",
          "name": "_value",
          "type": "uint256"
        }
      ],
      "name": "burn",
      "outputs": [],
      "stateMutability": "nonpayable",
      "type": "function"
    },
    {
      "inputs": [],
      "name": "decimals",
      "outputs": [
        {
          "internalType": "uint8",
          "name": "",
          "type": "uint8"
        }
      ],
      "stateMutability": "view",
      "type": "function"
    },
    {
      "inputs": [
        {
          "internalType": "address",
          "name": "_spender",
          "type": "address"
        },
        {
          "internalType": "uint256",
          "name": "_value",
          "type": "uint256"
        }
      ],
      "name": "decreaseAllowance",
      "outputs": [
        {
          "internalType": "bool",
          "name": "",
          "type": "bool"
        }
      ],
      "stateMutability": "nonpayable",
      "type": "function"
    },
    {
      "inputs": [
        {
          "internalType": "address",
          "name": "_to",
          "type": "address"
        }
      ],
      "name": "delegate",
      "outputs": [],
      "stateMutability": "nonpayable",
      "type": "function"
    },
    {
      "inputs": [
        {
          "internalType": "address",
          "name": "_to",
          "type": "address"
        },
        {
          "internalType": "uint256",
          "name": "_nonce",
          "type": "uint256"
        },
        {
          "internalType": "uint256",
          "name": "_exp",
          "type": "uint256"
        },
        {
          "internalType": "uint8",
          "name": "v",
          "type": "uint8"
        },
        {
          "internalType": "bytes32",
          "name": "r",
          "type": "bytes32"
        },
        {
          "internalType": "bytes32",
          "name": "s",
          "type": "bytes32"
        }
      ],
      "name": "delegateWithSig",
      "outputs": [],
      "stateMutability": "nonpayable",
      "type": "function"
    },
    {
      "inputs": [
        {
          "internalType": "address",
          "name": "operator",
          "type": "address"
        },
        {
          "internalType": "uint256",
          "name": "target",
          "type": "uint256"
        },
        {
          "internalType": "uint256",
          "name": "desired",
          "type": "uint256"
        }
      ],
      "name": "evaluateBy",
      "outputs": [
        {
          "internalType": "uint256",
          "name": "",
          "type": "uint256"
        }
      ],
      "stateMutability": "view",
      "type": "function"
    },
    {
      "inputs": [],
      "name": "features",
      "outputs": [
        {
          "internalType": "uint256",
          "name": "",
          "type": "uint256"
        }
      ],
      "stateMutability": "view",
      "type": "function"
    },
    {
      "inputs": [
        {
          "internalType": "address",
          "name": "_of",
          "type": "address"
        }
      ],
      "name": "getVotingPower",
      "outputs": [
        {
          "internalType": "uint256",
          "name": "",
          "type": "uint256"
        }
      ],
      "stateMutability": "view",
      "type": "function"
    },
    {
      "inputs": [
        {
          "internalType": "address",
          "name": "_of",
          "type": "address"
        },
        {
          "internalType": "uint256",
          "name": "_blockNum",
          "type": "uint256"
        }
      ],
      "name": "getVotingPowerAt",
      "outputs": [
        {
          "internalType": "uint256",
          "name": "",
          "type": "uint256"
        }
      ],
      "stateMutability": "view",
      "type": "function"
    },
    {
      "inputs": [
        {
          "internalType": "address",
          "name": "_of",
          "type": "address"
        }
      ],
      "name": "getVotingPowerHistory",
      "outputs": [
        {
          "components": [
            {
              "internalType": "uint64",
              "name": "blockNumber",
              "type": "uint64"
            },
            {
              "internalType": "uint192",
              "name": "votingPower",
              "type": "uint192"
            }
          ],
          "internalType": "struct zStakeERC20.VotingPowerRecord[]",
          "name": "",
          "type": "tuple[]"
        }
      ],
      "stateMutability": "view",
      "type": "function"
    },
    {
      "inputs": [
        {
          "internalType": "address",
          "name": "_of",
          "type": "address"
        }
      ],
      "name": "getVotingPowerHistoryLength",
      "outputs": [
        {
          "internalType": "uint256",
          "name": "",
          "type": "uint256"
        }
      ],
      "stateMutability": "view",
      "type": "function"
    },
    {
      "inputs": [
        {
          "internalType": "address",
          "name": "_spender",
          "type": "address"
        },
        {
          "internalType": "uint256",
          "name": "_value",
          "type": "uint256"
        }
      ],
      "name": "increaseAllowance",
      "outputs": [
        {
          "internalType": "bool",
          "name": "",
          "type": "bool"
        }
      ],
      "stateMutability": "nonpayable",
      "type": "function"
    },
    {
      "inputs": [
        {
          "internalType": "uint256",
          "name": "required",
          "type": "uint256"
        }
      ],
      "name": "isFeatureEnabled",
      "outputs": [
        {
          "internalType": "bool",
          "name": "",
          "type": "bool"
        }
      ],
      "stateMutability": "view",
      "type": "function"
    },
    {
      "inputs": [
        {
          "internalType": "address",
          "name": "operator",
          "type": "address"
        },
        {
          "internalType": "uint256",
          "name": "required",
          "type": "uint256"
        }
      ],
      "name": "isOperatorInRole",
      "outputs": [
        {
          "internalType": "bool",
          "name": "",
          "type": "bool"
        }
      ],
      "stateMutability": "view",
      "type": "function"
    },
    {
      "inputs": [
        {
          "internalType": "uint256",
          "name": "required",
          "type": "uint256"
        }
      ],
      "name": "isSenderInRole",
      "outputs": [
        {
          "internalType": "bool",
          "name": "",
          "type": "bool"
        }
      ],
      "stateMutability": "view",
      "type": "function"
    },
    {
      "inputs": [
        {
          "internalType": "address",
          "name": "_to",
          "type": "address"
        },
        {
          "internalType": "uint256",
          "name": "_value",
          "type": "uint256"
        }
      ],
      "name": "mint",
      "outputs": [],
      "stateMutability": "nonpayable",
      "type": "function"
    },
    {
      "inputs": [],
      "name": "name",
      "outputs": [
        {
          "internalType": "string",
          "name": "",
          "type": "string"
        }
      ],
      "stateMutability": "view",
      "type": "function"
    },
    {
      "inputs": [
        {
          "internalType": "address",
          "name": "",
          "type": "address"
        }
      ],
      "name": "nonces",
      "outputs": [
        {
          "internalType": "uint256",
          "name": "",
          "type": "uint256"
        }
      ],
      "stateMutability": "view",
      "type": "function"
    },
    {
      "inputs": [
        {
          "internalType": "address",
          "name": "_from",
          "type": "address"
        },
        {
          "internalType": "address",
          "name": "_to",
          "type": "address"
        },
        {
          "internalType": "uint256",
          "name": "_value",
          "type": "uint256"
        },
        {
          "internalType": "bytes",
          "name": "_data",
          "type": "bytes"
        }
      ],
      "name": "safeTransferFrom",
      "outputs": [],
      "stateMutability": "nonpayable",
      "type": "function"
    },
    {
      "inputs": [],
      "name": "symbol",
      "outputs": [
        {
          "internalType": "string",
          "name": "",
          "type": "string"
        }
      ],
      "stateMutability": "view",
      "type": "function"
    },
    {
      "inputs": [
        {
          "internalType": "address",
          "name": "",
          "type": "address"
        }
      ],
      "name": "tokenBalances",
      "outputs": [
        {
          "internalType": "uint256",
          "name": "",
          "type": "uint256"
        }
      ],
      "stateMutability": "view",
      "type": "function"
    },
    {
      "inputs": [],
      "name": "totalSupply",
      "outputs": [
        {
          "internalType": "uint256",
          "name": "",
          "type": "uint256"
        }
      ],
      "stateMutability": "view",
      "type": "function"
    },
    {
      "inputs": [
        {
          "internalType": "address",
          "name": "_to",
          "type": "address"
        },
        {
          "internalType": "uint256",
          "name": "_value",
          "type": "uint256"
        }
      ],
      "name": "transfer",
      "outputs": [
        {
          "internalType": "bool",
          "name": "success",
          "type": "bool"
        }
      ],
      "stateMutability": "nonpayable",
      "type": "function"
    },
    {
      "inputs": [
        {
          "internalType": "address",
          "name": "",
          "type": "address"
        },
        {
          "internalType": "address",
          "name": "",
          "type": "address"
        }
      ],
      "name": "transferAllowances",
      "outputs": [
        {
          "internalType": "uint256",
          "name": "",
          "type": "uint256"
        }
      ],
      "stateMutability": "view",
      "type": "function"
    },
    {
      "inputs": [
        {
          "internalType": "address",
          "name": "_from",
          "type": "address"
        },
        {
          "internalType": "address",
          "name": "_to",
          "type": "address"
        },
        {
          "internalType": "uint256",
          "name": "_value",
          "type": "uint256"
        }
      ],
      "name": "transferFrom",
      "outputs": [
        {
          "internalType": "bool",
          "name": "success",
          "type": "bool"
        }
      ],
      "stateMutability": "nonpayable",
      "type": "function"
    },
    {
      "inputs": [
        {
          "internalType": "address",
          "name": "_from",
          "type": "address"
        },
        {
          "internalType": "address",
          "name": "_to",
          "type": "address"
        },
        {
          "internalType": "uint256",
          "name": "_value",
          "type": "uint256"
        }
      ],
      "name": "unsafeTransferFrom",
      "outputs": [],
      "stateMutability": "nonpayable",
      "type": "function"
    },
    {
      "inputs": [
        {
          "internalType": "uint256",
          "name": "_mask",
          "type": "uint256"
        }
      ],
      "name": "updateFeatures",
      "outputs": [],
      "stateMutability": "nonpayable",
      "type": "function"
    },
    {
      "inputs": [
        {
          "internalType": "address",
          "name": "operator",
          "type": "address"
        },
        {
          "internalType": "uint256",
          "name": "role",
          "type": "uint256"
        }
      ],
      "name": "updateRole",
      "outputs": [],
      "stateMutability": "nonpayable",
      "type": "function"
    },
    {
      "inputs": [
        {
          "internalType": "address",
          "name": "",
          "type": "address"
        }
      ],
      "name": "userRoles",
      "outputs": [
        {
          "internalType": "uint256",
          "name": "",
          "type": "uint256"
        }
      ],
      "stateMutability": "view",
      "type": "function"
    },
    {
      "inputs": [
        {
          "internalType": "address",
          "name": "",
          "type": "address"
        }
      ],
      "name": "votingDelegates",
      "outputs": [
        {
          "internalType": "address",
          "name": "",
          "type": "address"
        }
      ],
      "stateMutability": "view",
      "type": "function"
    },
    {
      "inputs": [
        {
          "internalType": "address",
          "name": "",
          "type": "address"
        },
        {
          "internalType": "uint256",
          "name": "",
          "type": "uint256"
        }
      ],
      "name": "votingPowerHistory",
      "outputs": [
        {
          "internalType": "uint64",
          "name": "blockNumber",
          "type": "uint64"
        },
        {
          "internalType": "uint192",
          "name": "votingPower",
          "type": "uint192"
        }
      ],
      "stateMutability": "view",
      "type": "function"
    }
  ],
  "bytecode": "0x60806040523480156200001157600080fd5b5060405162002f5838038062002f588339810160408190526200003491620006a8565b33600090815260208190526040902060001990556001600160a01b038116620000b25760405162461bcd60e51b815260206004820152602560248201527f5f696e697469616c486f6c646572206e6f742073657420287a65726f20616464604482015264726573732960d81b60648201526084015b60405180910390fd5b620000ca816b019d971e4fe8401e74000000620000d1565b506200071c565b620000df62010000620003b8565b620001535760405162461bcd60e51b815260206004820152603560248201527f696e73756666696369656e742070726976696c656765732028524f4c455f544f60448201527f4b454e5f43524541544f522072657175697265642900000000000000000000006064820152608401620000a9565b6001600160a01b038216620001ab5760405162461bcd60e51b815260206004820152601f60248201527f45524332303a206d696e7420746f20746865207a65726f2061646472657373006044820152606401620000a9565b600154620001ba8282620006d1565b11620002185760405162461bcd60e51b815260206004820152602660248201527f7a65726f2076616c7565206d696e74206f722061726974686d65746963206f766044820152656572666c6f7760d01b6064820152608401620000a9565b6001546001600160c01b039062000231908390620006d1565b1115620002815760405162461bcd60e51b815260206004820152601f60248201527f746f74616c20737570706c79206f766572666c6f77202875696e7431393229006044820152606401620000a9565b8060016000828254620002959190620006d1565b90915550506001600160a01b03821660009081526002602052604081208054839290620002c4908490620006d1565b90915550506001600160a01b03808316600090815260036020526040812054620002f0921683620003cc565b6040518181526001600160a01b0383169033907f9d228d69b5fdb8d273a2336f8fb8612d039631024ea9bf09c424a9503aa078f09060200160405180910390a36040518181526001600160a01b0383169060009033907f769254a71d2f67d8ac6cb44f2803c0d05cfbcf9effadb6a984f10ff9de3df6c39060200160405180910390a46040518181526001600160a01b038316906000907fddf252ad1be2c89b69c2b068fc378daa952ba7f163c4a11628f55a4df523b3ef9060200160405180910390a35050565b6000620003c6338362000479565b92915050565b816001600160a01b0316836001600160a01b03161480620003eb575080155b15620003f657505050565b6001600160a01b038316156200043557600062000413846200049e565b90506000620004238383620006ec565b90506200043285838362000529565b50505b6001600160a01b038216156200047457600062000452836200049e565b90506000620004628383620006d1565b90506200047184838362000529565b50505b505050565b6001600160a01b038216600090815260208190526040812054821682145b9392505050565b6001600160a01b0381166000908152600460205260408120805415620005165780548190620004d090600190620006ec565b81548110620004ef57634e487b7160e01b600052603260045260246000fd5b6000918252602090912001546801000000000000000090046001600160c01b031662000519565b60005b6001600160c01b03169392505050565b6001600160a01b03831660009081526004602052604090208054158015906200059757508054439082906200056190600190620006ec565b815481106200058057634e487b7160e01b600052603260045260246000fd5b6000918252602090912001546001600160401b0316145b156200060757805482908290620005b190600190620006ec565b81548110620005d057634e487b7160e01b600052603260045260246000fd5b9060005260206000200160000160086101000a8154816001600160c01b0302191690836001600160c01b031602179055506200065e565b604080518082019091526001600160401b0343811682526001600160c01b03808516602080850191825285546001810187556000878152919091209451915190921668010000000000000000029216919091179101555b60408051848152602081018490526001600160a01b038616917f53ed7954de66613e30dd29b46ab783aa594e6309d021d8854c76bb3325d03aa3910160405180910390a250505050565b600060208284031215620006ba578081fd5b81516001600160a01b038116811462000497578182fd5b60008219821115620006e757620006e762000706565b500190565b60008282101562000701576200070162000706565b500390565b634e487b7160e01b600052601160045260246000fd5b61282c806200072c6000396000f3fe608060405234801561001057600080fd5b50600436106102a05760003560e01c806384b34a3111610167578063c5ff500c116100ce578063e7a324dc11610087578063e7a324dc146106f2578063e98f5ba714610719578063eaeded5f14610723578063f63c2f8214610736578063f822d5aa1461073e578063fcc2c0781461075157600080fd5b8063c5ff500c1461065f578063c688d69314610669578063ce9517cf1461067c578063d5bb7f671461069c578063dd62ed3e146106af578063e62cac76146106e857600080fd5b8063a9059cbb11610120578063a9059cbb14610600578063ae5b102e14610613578063ae682e2e14610626578063b88d4fde14610631578063bb4d443614610644578063c0d6568d1461065757600080fd5b806384b34a311461057c5780638d4e57e6146105a55780638f6fba8c146105af57806395d89b41146105b75780639dc29fac146105da578063a457c2d7146105ed57600080fd5b8063395093511161020b57806363152a50116101c457806363152a501461049a57806370a08231146104c5578063725f3626146104ee57806374d5e100146105015780637ecebe00146105215780637fd491b01461054157600080fd5b806339509351146104265780633e9c5f7e1461043957806340c10f1914610441578063523fba7f1461045457806359b961ef146104745780635c19a95c1461048757600080fd5b80631e0fa2341161025d5780631e0fa2341461035a57806320606b701461039b57806323b872dd146103c25780632b521416146103d55780632d4c39ea14610404578063313ce5671461040c57600080fd5b806306fdde03146102a5578063095ea7b3146102e657806315d2c2251461030957806318160ddd1461031e5780631993f554146103355780631a0b04ea14610352575b600080fd5b6102d06040518060400160405280600c81526020016b15da5b19195c8815dbdc9b1960a21b81525081565b6040516102dd919061272d565b60405180910390f35b6102f96102f436600461254a565b610764565b60405190151581526020016102dd565b61031c6103173660046125a5565b61087c565b005b61032760015481565b6040519081526020016102dd565b61033d600481565b60405163ffffffff90911681526020016102dd565b61033d600881565b6103836103683660046123ee565b6003602052600090815260409020546001600160a01b031681565b6040516001600160a01b0390911681526020016102dd565b6103277f8cad95687ba82c2ce50e74f7b754645e5117c3a5bec8151c0726d5857980a86681565b6102f96103d036600461243a565b610b94565b60008080526020527fad3228b676f7d3cd4284a5443f17f1962b36e491b30a40b2405849e597ba5fb554610327565b61033d604081565b610414601281565b60405160ff90911681526020016102dd565b6102f961043436600461254a565b610bff565b61033d602081565b61031c61044f36600461254a565b610cad565b6103276104623660046123ee565b60026020526000908152604090205481565b61031c61048236600461243a565b610f67565b61031c6104953660046123ee565b611520565b6103276104a8366004612408565b600660209081526000928352604080842090915290825290205481565b6103276104d33660046123ee565b6001600160a01b031660009081526002602052604090205490565b6102f96104fc36600461262b565b611583565b61032761050f3660046123ee565b60006020819052908152604090205481565b61032761052f3660046123ee565b60056020526000908152604090205481565b61055461054f36600461254a565b6115bf565b6040805167ffffffffffffffff90931683526001600160c01b039091166020830152016102dd565b61032761058a3660046123ee565b6001600160a01b031660009081526004602052604090205490565b61033d6201000081565b61033d600281565b6102d06040518060400160405280600481526020016315d2531160e21b81525081565b61031c6105e836600461254a565b611609565b6102f96105fb36600461254a565b611a66565b6102f961060e36600461254a565b611b43565b61031c61062136600461254a565b611b57565b610327600160ff1b81565b61031c61063f366004612475565b611c49565b6103276106523660046123ee565b611d4c565b61033d600181565b61033d6204000081565b6102f961067736600461254a565b611dcd565b61068f61068a3660046123ee565b611def565b6040516102dd91906126cb565b61031c6106aa36600461262b565b611e82565b6103276106bd366004612408565b6001600160a01b03918216600090815260066020908152604080832093909416825291909152205490565b61033d6202000081565b6103277fff41620983935eb4d4a3c7384a066ca8c1d10cef9a5eca9eb97ca735cd14a75581565b61033d6208000081565b61032761073136600461254a565b611e8d565b61033d601081565b61032761074c366004612573565b611fec565b6102f961075f36600461262b565b612017565b60006001600160a01b0383166107cc5760405162461bcd60e51b815260206004820152602260248201527f45524332303a20617070726f766520746f20746865207a65726f206164647265604482015261737360f01b60648201526084015b60405180910390fd5b3360008181526006602090815260408083206001600160a01b03881680855290835292819020805490879055815181815292830187905293917f71594b34a69973da9bff6f72cc0aad2c51069b6b8e9c70c0648b58d10d7bd84b910160405180910390a36040518381526001600160a01b0385169033907f8c5be1e5ebec7d5bd14f71427d1e84f3dd0314c0f7b2291e5b200ac8c7c3b9259060200160405180910390a360019150505b92915050565b6108866040611583565b6108dd5760405162461bcd60e51b815260206004820152602260248201527f64656c65676174696f6e73206f6e20626568616c66206172652064697361626c604482015261195960f21b60648201526084016107c3565b604080518082018252600c81526b15da5b19195c8815dbdc9b1960a21b60209182015281517f8cad95687ba82c2ce50e74f7b754645e5117c3a5bec8151c0726d5857980a866818301527fddca6e479bb6498d126e447aedc1ef6af1427fab0b37f8f16dbeff726f2c276981840152466060820152306080808301919091528351808303909101815260a0820184528051908301207fff41620983935eb4d4a3c7384a066ca8c1d10cef9a5eca9eb97ca735cd14a75560c08301526001600160a01b038a1660e083015261010082018990526101208083018990528451808403909101815261014083019094528351939092019290922061190160f01b6101608401526101628301829052610182830181905290916000906101a20160408051601f198184030181528282528051602091820120600080855291840180845281905260ff8a169284019290925260608301889052608083018790529092509060019060a0016020604051602081039080840390855afa158015610a64573d6000803e3d6000fd5b5050604051601f1901519150506001600160a01b038116610abb5760405162461bcd60e51b8152602060048201526011602482015270696e76616c6964207369676e617475726560781b60448201526064016107c3565b6001600160a01b0381166000908152600560205260409020548914610b125760405162461bcd60e51b815260206004820152600d60248201526c696e76616c6964206e6f6e636560981b60448201526064016107c3565b874210610b555760405162461bcd60e51b81526020600482015260116024820152701cda59db985d1d5c9948195e1c1a5c9959607a1b60448201526064016107c3565b6001600160a01b0381166000908152600560205260408120805491610b798361278f565b9190505550610b88818b612023565b50505050505050505050565b6000610ba06004611583565b80610bb35750610bb38362040000611dcd565b80610bc55750610bc562080000612017565b15610bda57610bd5848484610f67565b610bf5565b610bf584848460405180602001604052806000815250611c49565b5060019392505050565b3360009081526006602090815260408083206001600160a01b038616845290915281205480610c2e8482612740565b11610c975760405162461bcd60e51b815260206004820152603360248201527f7a65726f2076616c756520617070726f76616c20696e637265617365206f722060448201527261726974686d65746963206f766572666c6f7760681b60648201526084016107c3565b610ca5846102f48584612740565b949350505050565b610cb962010000612017565b610d235760405162461bcd60e51b815260206004820152603560248201527f696e73756666696369656e742070726976696c656765732028524f4c455f544f6044820152744b454e5f43524541544f522072657175697265642960581b60648201526084016107c3565b6001600160a01b038216610d795760405162461bcd60e51b815260206004820152601f60248201527f45524332303a206d696e7420746f20746865207a65726f20616464726573730060448201526064016107c3565b600154610d868282612740565b11610de25760405162461bcd60e51b815260206004820152602660248201527f7a65726f2076616c7565206d696e74206f722061726974686d65746963206f766044820152656572666c6f7760d01b60648201526084016107c3565b6001546001600160c01b0390610df9908390612740565b1115610e475760405162461bcd60e51b815260206004820152601f60248201527f746f74616c20737570706c79206f766572666c6f77202875696e74313932290060448201526064016107c3565b8060016000828254610e599190612740565b90915550506001600160a01b03821660009081526002602052604081208054839290610e86908490612740565b90915550506001600160a01b03808316600090815260036020526040812054610eb09216836120be565b6040518181526001600160a01b0383169033907f9d228d69b5fdb8d273a2336f8fb8612d039631024ea9bf09c424a9503aa078f09060200160405180910390a36040518181526001600160a01b0383169060009033907f769254a71d2f67d8ac6cb44f2803c0d05cfbcf9effadb6a984f10ff9de3df6c39060200160405180910390a46040518181526001600160a01b038316906000906000805160206127d7833981519152906020015b60405180910390a35050565b6001600160a01b03831633148015610f845750610f846001611583565b80610fa857506001600160a01b0383163314801590610fa85750610fa86002611583565b6001600160a01b0384163314610ff3576040518060400160405280602081526020017f7472616e7366657273206f6e20626568616c66206172652064697361626c6564815250611023565b604051806040016040528060168152602001751d1c985b9cd9995c9cc8185c9948191a5cd8589b195960521b8152505b906110415760405162461bcd60e51b81526004016107c3919061272d565b506001600160a01b0383166110a65760405162461bcd60e51b815260206004820152602560248201527f45524332303a207472616e736665722066726f6d20746865207a65726f206164604482015264647265737360d81b60648201526084016107c3565b6001600160a01b0382166111085760405162461bcd60e51b815260206004820152602360248201527f45524332303a207472616e7366657220746f20746865207a65726f206164647260448201526265737360e81b60648201526084016107c3565b816001600160a01b0316836001600160a01b031614156111825760405162461bcd60e51b815260206004820152602f60248201527f73656e64657220616e6420726563697069656e7420617265207468652073616d60448201526e6520285f66726f6d203d205f746f2960881b60648201526084016107c3565b6001600160a01b0382163014156112015760405162461bcd60e51b815260206004820152603f60248201527f696e76616c696420726563697069656e7420287472616e7366657220746f207460448201527f686520746f6b656e20736d61727420636f6e747261637420697473656c66290060648201526084016107c3565b8061124657816001600160a01b0316836001600160a01b03166000805160206127d78339815191528360405161123991815260200190565b60405180910390a3505050565b6001600160a01b0383163314611393576001600160a01b0383166000908152600660209081526040808320338452909152902054818110156112db5760405162461bcd60e51b815260206004820152602860248201527f45524332303a207472616e7366657220616d6f756e74206578636565647320616044820152676c6c6f77616e636560c01b60648201526084016107c3565b6112e58282612778565b6001600160a01b03851660008181526006602090815260408083203380855292529091208390559192507f71594b34a69973da9bff6f72cc0aad2c51069b6b8e9c70c0648b58d10d7bd84b61133a8585612740565b60408051918252602082018690520160405180910390a360405181815233906001600160a01b038616907f8c5be1e5ebec7d5bd14f71427d1e84f3dd0314c0f7b2291e5b200ac8c7c3b9259060200160405180910390a3505b6001600160a01b03831660009081526002602052604090205481111561140a5760405162461bcd60e51b815260206004820152602660248201527f45524332303a207472616e7366657220616d6f756e7420657863656564732062604482015265616c616e636560d01b60648201526084016107c3565b6001600160a01b03831660009081526002602052604081208054839290611432908490612778565b90915550506001600160a01b0382166000908152600260205260408120805483929061145f908490612740565b90915550506001600160a01b03808416600090815260036020526040808220548584168352912054611496929182169116836120be565b816001600160a01b0316836001600160a01b0316336001600160a01b03167f769254a71d2f67d8ac6cb44f2803c0d05cfbcf9effadb6a984f10ff9de3df6c3846040516114e591815260200190565b60405180910390a4816001600160a01b0316836001600160a01b03166000805160206127d78339815191528360405161123991815260200190565b61152a6020611583565b6115765760405162461bcd60e51b815260206004820152601860248201527f64656c65676174696f6e73206172652064697361626c6564000000000000000060448201526064016107c3565b6115803382612023565b50565b60006108766115b860008080526020527fad3228b676f7d3cd4284a5443f17f1962b36e491b30a40b2405849e597ba5fb55490565b8316831490565b600460205281600052604060002081815481106115db57600080fd5b60009182526020909120015467ffffffffffffffff81169250600160401b90046001600160c01b0316905082565b61161562020000612017565b611839576001600160a01b0382163314801561163657506116366008611583565b8061165a57506001600160a01b038216331480159061165a575061165a6010611583565b6001600160a01b03831633146116a5576040518060400160405280601c81526020017f6275726e73206f6e20626568616c66206172652064697361626c6564000000008152506116d1565b60405180604001604052806012815260200171189d5c9b9cc8185c9948191a5cd8589b195960721b8152505b906116ef5760405162461bcd60e51b81526004016107c3919061272d565b506001600160a01b0382163314611839576001600160a01b0382166000908152600660209081526040808320338452909152902054818110156117805760405162461bcd60e51b8152602060048201526024808201527f45524332303a206275726e20616d6f756e74206578636565647320616c6c6f77604482015263616e636560e01b60648201526084016107c3565b61178a8282612778565b6001600160a01b0384166000818152600660209081526040808320338085529252909120839055919250907f71594b34a69973da9bff6f72cc0aad2c51069b6b8e9c70c0648b58d10d7bd84b6117e08585612740565b60408051918252602082018690520160405180910390a360405181815233906001600160a01b038516907f8c5be1e5ebec7d5bd14f71427d1e84f3dd0314c0f7b2291e5b200ac8c7c3b9259060200160405180910390a3505b806118785760405162461bcd60e51b815260206004820152600f60248201526e3d32b937903b30b63ab290313ab93760891b60448201526064016107c3565b6001600160a01b0382166118d85760405162461bcd60e51b815260206004820152602160248201527f45524332303a206275726e2066726f6d20746865207a65726f206164647265736044820152607360f81b60648201526084016107c3565b6001600160a01b03821660009081526002602052604090205481111561194b5760405162461bcd60e51b815260206004820152602260248201527f45524332303a206275726e20616d6f756e7420657863656564732062616c616e604482015261636560f01b60648201526084016107c3565b6001600160a01b03821660009081526002602052604081208054839290611973908490612778565b92505081905550806001600082825461198c9190612778565b90915550506001600160a01b038083166000908152600360205260408120546119b7921690836120be565b6040518181526001600160a01b0383169033907fe8a89cc6e5096f9d9f43de82c077c1f4cfe707c0e0c2032176c68813b9ae6a5c9060200160405180910390a36040518181526000906001600160a01b0384169033907f769254a71d2f67d8ac6cb44f2803c0d05cfbcf9effadb6a984f10ff9de3df6c39060200160405180910390a46040518181526000906001600160a01b038416906000805160206127d783398151915290602001610f5b565b3360009081526006602090815260408083206001600160a01b038616845290915281205482611ad75760405162461bcd60e51b815260206004820152601c60248201527f7a65726f2076616c756520617070726f76616c2064656372656173650000000060448201526064016107c3565b82811015611b355760405162461bcd60e51b815260206004820152602560248201527f45524332303a2064656372656173656420616c6c6f77616e63652062656c6f77604482015264207a65726f60d81b60648201526084016107c3565b610ca5846102f48584612778565b6000611b50338484610b94565b9392505050565b611b64600160ff1b612017565b611bcf5760405162461bcd60e51b815260206004820152603660248201527f696e73756666696369656e742070726976696c656765732028524f4c455f4143604482015275434553535f4d414e414745522072657175697265642960501b60648201526084016107c3565b6001600160a01b038216600090815260208190526040902054611bf490339083611fec565b6001600160a01b03831660008181526020818152604091829020849055815185815290810193909352909133917f5a10526456f5116c0b7b80582c217d666243fd51b6a2d92c8011e601c2462e5f9101610f5b565b611c54848484610f67565b823b15611d4657604051634fc3585960e01b81526000906001600160a01b03851690634fc3585990611c9090339089908890889060040161268e565b602060405180830381600087803b158015611caa57600080fd5b505af1158015611cbe573d6000803e3d6000fd5b505050506040513d601f19601f82011682018060405250810190611ce29190612603565b90506001600160e01b03198116634fc3585960e01b14611d445760405162461bcd60e51b815260206004820181905260248201527f696e76616c6964206f6e4552433230526563656976656420726573706f6e736560448201526064016107c3565b505b50505050565b6001600160a01b0381166000908152600460205260408120805415611dba5780548190611d7b90600190612778565b81548110611d9957634e487b7160e01b600052603260045260246000fd5b600091825260209091200154600160401b90046001600160c01b0316611dbd565b60005b6001600160c01b03169392505050565b6001600160a01b03821660009081526020819052604081205482168214611b50565b6001600160a01b0381166000908152600460209081526040808320805482518185028101850190935280835260609492939192909184015b82821015611e77576000848152602090819020604080518082019091529084015467ffffffffffffffff81168252600160401b90046001600160c01b031681830152825260019092019101611e27565b505050509050919050565b611580600082611b57565b6000438210611ed35760405162461bcd60e51b81526020600482015260126024820152711b9bdd081e595d0819195d195c9b5a5b995960721b60448201526064016107c3565b6001600160a01b03831660009081526004602052604090208054611efb576000915050610876565b805483908290611f0d90600190612778565b81548110611f2b57634e487b7160e01b600052603260045260246000fd5b60009182526020909120015467ffffffffffffffff1611611f5757611f4f84611d4c565b915050610876565b8281600081548110611f7957634e487b7160e01b600052603260045260246000fd5b60009182526020909120015467ffffffffffffffff161115611f9f576000915050610876565b80611faa8585612158565b81548110611fc857634e487b7160e01b600052603260045260246000fd5b600091825260209091200154600160401b90046001600160c01b0316949350505050565b6001600160a01b03929092166000908152602081905260409020546000198084188216189216171690565b60006108763383611dcd565b6001600160a01b0380831660009081526003602081815260408084208054600284529190942054929091528484166001600160a01b031982161790925591169061206e8284836120be565b826001600160a01b0316826001600160a01b0316856001600160a01b03167f3134e8a2e6d97e929a7e54011ea5485d7d196dd5f0ba4d4ef95803e8e3fc257f60405160405180910390a450505050565b816001600160a01b0316836001600160a01b031614806120dc575080155b156120e657505050565b6001600160a01b0383161561211e57600061210084611d4c565b9050600061210e8383612778565b905061211b85838361225f565b50505b6001600160a01b0382161561215357600061213883611d4c565b905060006121468383612740565b9050611d4484838361225f565b505050565b6001600160a01b038216600090815260046020526040812080548290819061218290600190612778565b90505b81811115612256576000600261219b8484612778565b6121a59190612758565b6121af9083612778565b905060008482815481106121d357634e487b7160e01b600052603260045260246000fd5b60009182526020918290206040805180820190915291015467ffffffffffffffff8116808352600160401b9091046001600160c01b03169282019290925291508714156122265750935061087692505050565b805167ffffffffffffffff168711156122415781935061224f565b61224c600183612778565b92505b5050612185565b50949350505050565b6001600160a01b03831660009081526004602052604090208054158015906122ca575080544390829061229490600190612778565b815481106122b257634e487b7160e01b600052603260045260246000fd5b60009182526020909120015467ffffffffffffffff16145b15612335578054829082906122e190600190612778565b815481106122ff57634e487b7160e01b600052603260045260246000fd5b9060005260206000200160000160086101000a8154816001600160c01b0302191690836001600160c01b03160217905550612388565b6040805180820190915267ffffffffffffffff43811682526001600160c01b038085166020808501918252855460018101875560008781529190912094519151909216600160401b029216919091179101555b60408051848152602081018490526001600160a01b038616917f53ed7954de66613e30dd29b46ab783aa594e6309d021d8854c76bb3325d03aa3910160405180910390a250505050565b80356001600160a01b03811681146123e957600080fd5b919050565b6000602082840312156123ff578081fd5b611b50826123d2565b6000806040838503121561241a578081fd5b612423836123d2565b9150612431602084016123d2565b90509250929050565b60008060006060848603121561244e578081fd5b612457846123d2565b9250612465602085016123d2565b9150604084013590509250925092565b6000806000806080858703121561248a578081fd5b612493856123d2565b93506124a1602086016123d2565b925060408501359150606085013567ffffffffffffffff808211156124c4578283fd5b818701915087601f8301126124d7578283fd5b8135818111156124e9576124e96127c0565b604051601f8201601f19908116603f01168101908382118183101715612511576125116127c0565b816040528281528a6020848701011115612529578586fd5b82602086016020830137918201602001949094529598949750929550505050565b6000806040838503121561255c578182fd5b612565836123d2565b946020939093013593505050565b600080600060608486031215612587578283fd5b612590846123d2565b95602085013595506040909401359392505050565b60008060008060008060c087890312156125bd578182fd5b6125c6876123d2565b95506020870135945060408701359350606087013560ff811681146125e9578283fd5b9598949750929560808101359460a0909101359350915050565b600060208284031215612614578081fd5b81516001600160e01b031981168114611b50578182fd5b60006020828403121561263c578081fd5b5035919050565b60008151808452815b818110156126685760208185018101518683018201520161264c565b818111156126795782602083870101525b50601f01601f19169290920160200192915050565b6001600160a01b03858116825284166020820152604081018390526080606082018190526000906126c190830184612643565b9695505050505050565b602080825282518282018190526000919060409081850190868401855b82811015612720578151805167ffffffffffffffff1685528601516001600160c01b03168685015292840192908501906001016126e8565b5091979650505050505050565b602081526000611b506020830184612643565b60008219821115612753576127536127aa565b500190565b60008261277357634e487b7160e01b81526012600452602481fd5b500490565b60008282101561278a5761278a6127aa565b500390565b60006000198214156127a3576127a36127aa565b5060010190565b634e487b7160e01b600052601160045260246000fd5b634e487b7160e01b600052604160045260246000fdfeddf252ad1be2c89b69c2b068fc378daa952ba7f163c4a11628f55a4df523b3efa2646970667358221220e880b892594e471253fc8c50ffda5b9fe6e69355f3a6646c91102e0f963731f564736f6c63430008040033",
  "linkReferences": {},
  "deployedLinkReferences": {}
}